:020000040800F2
:10000000E00D00200101000811270008C1120008BE
:100010000D270008370E00083F3D000800000000D3
:10002000000000000000000000000000353400085F
:100030003B0E000800000000AD3100081901000867
:100040001B0100081B0100081B0100081B01000820
:100050001B0100081B0100081B0100081B01000810
:100060001B0100081B0100081B0100081B01000800
:100070001B0100081B0100081B0100081B010008F0
:100080001B0100081B0100081B0100081B010008E0
:100090001B0100081B0100081B0100081B010008D0
:1000A0001B0100081B0100081B0100081B010008C0
:1000B000A9350008DD3500081B0100081B010008F8
:1000C0001B0100081B0100081B0100081B010008A0
:1000D0001B010008F13900083D3A00081B01000827
:1000E0001B0100081B0100081B010008DFF80CD0F1
:1000F00000F0D2FD004800472D6A0008E00D002006
:100100000648804706480047FEE7FEE7FEE7FEE7B1
:10011000FEE7FEE7FEE7FEE7FEE7FEE749350008FB
:10012000ED0000082DE9F0410024061B254671F181
:10013000000605DA01240027D0EB070067EB010178
:10014000161E73F1000605DA0027D2EB070201251F
:1001500067EB030300F0DAFB86460E4617469C4623
:10016000AC4204D00025D0EB050E65EB010624B1AE
:100170000020D2EB000760EB030C704631463A4694
:100180006346BDE8F08140EA01039B0703D009E024
:1001900008C9121F08C0042AFAD203E011F8013B73
:1001A00000F8013B521EF9D27047D2B201E000F8CC
:1001B000012B491EFBD270470022F6E710B513460B
:1001C0000A4604461946FFF7F0FF204610BD421EBE
:1001D00012F8013F002BFBD111F8013B02F8013B63
:1001E000002BF9D1704730B505462A460B4612F868
:1001F000010B13F8014B08B1A042F8D01CB1002844
:1002000002D06D1CF1E7284630BDCAB2401E10F87E
:10021000011F8A4202D00029F9D100207047421CF8
:1002200010F8011B0029FBD1801A704730B5044635
:100230000020034600E05B1C934203D2E05CCD5CEF
:10024000401BF8D030BD10B5044600E0401C0378D8
:10025000002BFBD100E0401C521E04D311F8013BDF
:100260000370002BF7D100210170204610BD03461A
:1002700011F8012B00F8012B002AF9D1184670471C
:1002800070B5064603F0E4FD046805460A22002125
:10029000304600F09DFB2C6070BDF0B480EA010296
:1002A000D40F4200B2EB410F02D20246084611467B
:1002B0004A0042D0C30DDDB2C1F3C752AD1A202DA2
:1002C00035DAC1F3160141F4000204B15242C5F11E
:1002D000200602FA06F12A411044B3EBD05F23D086
:1002E000C4B1012DA0EBC35009DCF0BC4FF00042BB
:1002F00002EAC352DBB200F5000000F0AABB4000E6
:1003000000F1807000EBC350A0F1807040EAD17022
:10031000490009E0490841EAC071A0EBC35000F56B
:100320000000400800EBC350F0BC00F089BB614204
:10033000012202EB4101001BF6E7F0BC704781F09F
:100340000041AAE780F00040A7E780EA010210B56B
:1003500002F00043400022D04A001FD0010E01EB02
:100360001261C0F35600C2F3560240F4000042F49A
:100370000002A0FB022000047F39140400D0401CBE
:1003800050EA124001D44000491EC2B20C0604EBF0
:10039000D010401C4008802A02D003E0002010BD8D
:1003A00020F00100002900DA0020184310BD30B40D
:1003B00080EA010202F0004530F0004221F00040E6
:1003C00013D090B1C30DD40DC2F31601C0F31600C3
:1003D000E41A41F4000140F400027D34914201D35B
:1003E000641C00E04900002C02DA30BC0020704799
:1003F0004FF400000023914201D3891A03434008BF
:100400004FEA4101F7D151B1914202D14FF0004181
:1004100005E002D24FF0010101E06FF0010103EBB2
:10042000C450284430BC00F00BBB2DE9FE4F804681
:1004300081EA0300C00F0C46009021F0004123F038
:100440000045B8EB0200A94105D24046214690463E
:100450001C460B46024623F00040104347D0270DB0
:10046000C7F30A00C3F30A510290401A01904028D2
:100470006BDAC3F3130040F4801B0098924620B15E
:100480000023D2EB030A63EB0B0B01985946C0F132
:100490004002504600F06BFA06460D46504659465B
:1004A000019A00F083FA10EB08006141002487EA0A
:1004B000115284EAE7731A4340D0009A62B3019A5A
:1004C000012A4FEA075215DC001B61EB02014FF0D5
:1004D000004202EA0752CDE90042001C41F58011BA
:1004E00032462B4600F0F2FA03B0BDE8F08F4046EA
:1004F0002146F9E7001B61EB0201001C41F5801366
:1005000000185B412018A2F5001747EB030140EAF1
:10051000D570B6196D4111E06D084FEA360645EA0F
:10052000C0754FEA0752001B61EB0201001C41F548
:10053000801149084FEA30000019514132462B46DC
:1005400003B0BDE8F04F00F0B2BA009801224000BD
:100550000023D0EB020263EBE073009821464FEAE0
:10056000E074B8EB000061EB0401E9E783F00043BD
:100570005BE781F0004158E72DE9FE4F81EA030473
:1005800004F0004421F0004100944FF0000B23F0F0
:10059000004350EA01045ED052EA03045BD0C3F387
:1005A0000A54C1F30A552C44A4F2F3340194A0FB7D
:1005B0000254C1F3130141F48011C3F3130343F454
:1005C000801301FB024400FB034E840A970A44EAAD
:1005D000815447EA8357A4FB076802958D0A05FBFF
:1005E00007854FEA932C04FB0C542705029D4FEA24
:1005F000065847EA1637B5EB08056EEB070C870E71
:10060000920E47EA811742EA8312A7FB0201B6EB7A
:100610000B0164EB00042B0D43EA0C335E1844EB32
:100620001C50DA465146E7FB0201C5F313044FEABA
:100630000B3343EA14534FEA0432019C43EA0603A6
:10064000A4F10C040294009CCDE900B400F03EFA41
:1006500003B0BDE8F08F00200146F9E72DE9F04D29
:1006600081EA030404F0004B21F0004514464FF0EA
:10067000000A23F0004150EA050220D054EA0102AA
:100680001DD0C5F30A570246C5F31303C1F3130087
:10069000C1F30A5640F4801543F48013A7EB060813
:1006A000101BD64608F2FD3873EB050002D308F1A3
:1006B000010801E092185B41B8F1000F03DA002055
:1006C0000146BDE8F08D00204FF4801106468446B7
:1006D0000EE0171B73EB050705D3121B63EB050335
:1006E00006434CEA010C49084FEA300092185B417E
:1006F00050EA0107EDD152EA030012D082EA040069
:1007000083EA0501084305D0101BAB4106D2012244
:10071000002306E000224FF0004302E06FF00102E8
:1007200053101AEB06004CEB085110EB0A0041EB9A
:100730000B01BDE8F04D00F0BAB9C10F80EAE070DE
:100740000844CA079623002100F083B996230022AB
:10075000114600F07EB90EB5C10F80EAE070084482
:10076000CA07002140F233438DE80E000A460B46CB
:1007700000F0ACF903B000BD0EB540F23341029178
:100780000021CDE900110A460B4600F09FF903B0A5
:1007900000BD00F0004220F00040C10DC0F3160083
:1007A00040F400007F2901DA00207047962903DC1D
:1007B000C1F19601C84001E096398840002AF4D082
:1007C0004042704720F00040C10DC0F3160040F4D5
:1007D00000007F2901DA00207047962903DCC1F16F
:1007E0009601C840704796398840704770B5C1F38C
:1007F0000A5201F000450024C1F3130140F2FF3317
:1008000041F480119A4201DA002070BD40F2334376
:100810009A42A2F2334203DC524200F0B7F800E001
:1008200090402C43F1D0404270BD00F0004230F0C7
:1008300000400AD0C10D01F56071C0F3160042EA14
:100840000151C2084007114370470020014670471C
:1008500030B5041E71F1000404DB4FF00044404247
:1008600064EB0101141E73F1000405DB1C464FF01C
:100870000043524263EB0403994208BF904230BDEB
:1008800001F0004330B421F0004150EA010206D0EB
:100890000A0DA2F56072C1F31301002A02DC30BC1C
:1008A00000207047440F44EAC104C100E01830BC86
:1008B00000EBC25000F0C4B8002801DBC0F10040DA
:1008C000002901DBC1F1004181427047002801DBB2
:1008D000C0F10040002901DBC1F1004188427047AE
:1008E00030B50B46014600202022012409E021FA00
:1008F00002F59D4205D303FA02F5491B04FA02F5FD
:100900002844151EA2F10102F1DC30BD2DE9F05F93
:100910000546002092469B4688460646814640246E
:100920001BE0284641464746224600F02FF8534632
:100930005A46C01A914110D311461846224600F07B
:1009400016F82D1A67EB01084F46224601200021B8
:1009500000F00DF817EB00094E41201EA4F1010430
:10096000DFDC484631462A464346BDE8F09F202A50
:1009700004DB203A00FA02F1002070479140C2F1F6
:10098000200320FA03F3194390407047202A04DB28
:10099000203A21FA02F00021704721FA02F3D040F8
:1009A000C2F120029140084319467047202A06DB15
:1009B000CB17203A41FA02F043EAE07306E041FA2D
:1009C00002F3D040C2F1200291400843194670471B
:1009D0002DE9F04791460F4680460446002614F85C
:1009E000015B2DB100F06AF90068405DC007F6D1E7
:1009F0002B2D02D02D2D18D0641E4A463946204694
:100A000000F060F927B13968A14201D1C7F8008030
:100A100071054FF002040BD54042002803DD03F0BE
:100A200017FA0460A007BDE8F08746F48066E4E7A3
:100A30000028F8DA03F00CFA04606FF00040F2E7E7
:100A40000029A8BF7047401C490008BF20F00100E2
:100A5000704710B4B0FA80FC00FA0CF050EA0104C0
:100A600004BF10BC704749B1CCF1200421FA04F452
:100A700011FA0CF118BF012121430843A3EB0C012B
:100A8000CB1D4FEA00614FEA102042BF002010BC8E
:100A9000704700EBC35010440029A4BF10BC70473E
:100AA000401C490008BF20F0010010BC704710B581
:100AB000141E73F1000408DA401C41F10001921881
:100AC0005B411A4301D120F0010010BD2DE9F04D2A
:100AD00092469B4611B1B1FA81F202E0B0FA80F27F
:100AE00020329046FFF743FF04460F4640EA0A00D3
:100AF00041EA0B0153465A46084313D0114653EAC4
:100B0000010019D0C8F140025046FFF73FFF0546EB
:100B10000E46504659464246FFF729FF084305D086
:100B2000012004E020463946BDE8F08D0020054351
:100B300046EAE0762C4337430A986305E40AA0EBC3
:100B400008000022FD0A44EA47540A3002D500207A
:100B50000146E9E7010510196941DDE90845001979
:100B60006941BDE8F04DA2E770B521F000430343B1
:100B70000CD0C1F30A550024D5EB040564EB040343
:100B8000D617AD1AB34102DB0020014670BD201814
:100B900041EB025170BD2DE9F04D00231A461B1A9E
:100BA0008A4103DB00200146BDE8F08DC1F30A5203
:100BB000C1F3130141F480154FF0000BD10702D1AE
:100BC00000186D41521E0027044640F2FF113846BE
:100BD00001EB620A3E468046024600204FF4801137
:100BE000FFF7D4FEC2197141BB1846EB0100B4EB0C
:100BF000030C75EB000C04D3E41A65EB00051746F3
:100C00000E46241908F101006D4180463428E3DDC9
:100C1000F91946EB0600091BA84103D24FF0FF3239
:100C2000134601E0002213461BEB070046EB0A5176
:100C3000BDE8F04DFFF73BBFC1F30A52C1F313010A
:100C400040F2FF3341F480119A4202DA002001465B
:100C5000704740F233439A42A2F2334202DC5242DE
:100C6000FFF794BEFFF783BE30B5041E71F1000498
:100C700004DB4FF00044404264EB0101141E73F1A9
:100C8000000405DB1C464FF00043524263EB0403B3
:100C90008B4208BF824230BD064C074D06E0E0683B
:100CA00040F0010394E8070098471034AC42F6D3B3
:100CB000FFF720FAC8A30008E8A30008004870471F
:100CC00074A300082DE9F05F8246007800271546DE
:100CD0008B460AF10104B946302801D09DB113E0DA
:100CE00014F8010B0127782803D0582801D045B10A
:100CF0000AE00DB1102D07D10027102514F8010BC3
:100D000002E0082500E00A250026B0460EE005FBBB
:100D1000080005FB06F1012701EB10461FFA80F8D9
:100D2000B6F5803F00D3B94614F8010B294600F010
:100D300018F80028EBDABBF1000F05D00FB1641EE4
:100D400000E05446CBF80040B9F1000F06D003F0A4
:100D50007FF802210160C81EBDE8F09F48EA064006
:100D6000FAE73A2800D2303820F02002412A01D395
:100D7000A2F13700884201D34FF0FF30704770B5C1
:100D80008C1810F8015B15F0070301D110F8013B36
:100D90002A1106D110F8012B03E010F8016B01F8BD
:100DA000016B5B1EF9D12B0705D40023521E0DD415
:100DB00001F8013BFAE710F8013BCB1A921C03E063
:100DC00013F8015B01F8015B521EF9D5A142D8D39B
:100DD000002070BD70B506460C46154600F02CFB91
:100DE000AE2000F0FBFA00F06FFB18B100F048FBFA
:100DF000012070BD304600F0F1FA00F065FB00F014
:100E00001BFBAF2000F0EAFA00F05EFB0DE0012DC5
:100E100004D1002000F0ACFA207003E0012000F0C3
:100E2000A7FA2070681EC5B2641C002DEFD100F037
:100E300027FB0020DDE700BFFEE7704700BF054944
:100E4000098801F040010029F9D00249091D0880F4
:100E5000704700000038014070B506460D4603207B
:100E6000FFF7ECFFFC20FFF7E9FF3046FFF791FCAE
:100E700004B2E0B2FFF7E2FFC4F30720FFF7DEFFA2
:100E80002846FFF786FC04B2E0B2FFF7D7FFC4F3B1
:100E90000720FFF7D3FFFC20FFF7D0FF0320FFF769
:100EA000CDFF70BD10B500F0A1F8012004F036FAB6
:100EB000CC2000F06FF8442000F06CF810BD00006A
:100EC00070B508243DE02148006820F070401F49BB
:100ED00008600846006840F04050086000201C4947
:100EE0000860012004F040FA01201A49C1F89C0171
:100EF0000A2004F039FA1548006820F070401349C0
:100F000008600846006840F00040086010488038DB
:100F10000068C6B2681040EAC610C5B22D2004F0C1
:100F200023FA0A48006820F0704008490860084623
:100F3000006840F04050086001200649C1F89C015B
:100F4000641E002CBFDC284670BD0000000C014070
:100F50009C8121420080214270B50024FFF7A2FF4E
:100F600000F00BF8FFF7ACFF0646FFF7A9FF0546B8
:100F70002C4624023443204670BD10B500F036F8EC
:100F8000012004F0CBF9CC2000F004F8BE2000F0E2
:100F900001F810BD70B504461148006820F070409B
:100FA0000F4908600846006840F04050086000257E
:100FB00012E000200B4908600F2004F0D5F904F07E
:100FC00001000949C1F89C013C2004F0CDF9012041
:100FD0000449086064106D1C082DEADB70BD000038
:100FE000000C01409C8121420080214210B5002468
:100FF0002148806940F008001F4988611F48006847
:1010000040F080001D4908601C480C38006820F042
:1010100070401A490C3908600846006840F040509A
:10102000086000201649086040F2822004F09CF914
:1010300001201449C1F89C011E2004F095F90F48C5
:101040000C38006820F070400C490C3908600846E4
:10105000006840F00040086007E0012004F05EF9FD
:10106000641C052C01DD002010BD05488038006897
:101070000128F2D00120F7E7001002400C0C0140DB
:101080009C812142008021422DE9F14F13484068A4
:10109000124908600868FFF7C8FB0646104A114B62
:1010A000FFF76AFA04460D460098FFF7BEFB0646B6
:1010B0000D4A0E4BFFF760FA804622462B46FFF79B
:1010C000B4F98246FFF7DCFB044948600A465168E0
:1010D0001068FFF7E2F8BDE8F88F00009C040020DC
:1010E0005CDDC150084EE03F48457C5EEF63CF3F7A
:1010F0002DE9F041024600250026002000230024AF
:10110000002791F803C00CF00F0591F803C00CF014
:10111000100CBCF1000F03D091F802C04CEA050599
:1011200091F800C0BCF1000F31D0146800202BE012
:101130004FF0010C0CFA00F3B1F800C00CEA030602
:101140009E4220D183004FF00F0C0CFA03F7BC43F2
:1011500005FA03FC4CEA040491F803C0BCF1280F23
:1011600006D14FF0010C0CFA00FCC2F814C00AE0E2
:1011700091F803C0BCF1480F05D14FF0010C0CFAF7
:1011800000FCC2F810C0401C0828D1D31460B1F88C
:1011900000C0BCF1FF0F34DD546800202EE000F1E8
:1011A000080C4FF0010808FA0CF3B1F800C00CEA83
:1011B00003069E4221D183004FF00F0C0CFA03F777
:1011C000BC4305FA03FC4CEA040491F803C0BCF1EB
:1011D000280F05D100F1080C08FA0CF8C2F81480A9
:1011E00091F803C0BCF1480F07D100F1080C4FF093
:1011F000010808FA0CF8C2F81080401C0828CED369
:101200005460BDE8F08141617047016170470AB1E7
:10121000016100E04161704710B586B004460121CC
:10122000042001F0E5FF0121480401F0C1FF22483C
:1012300002F066FC18208DF817000420ADF81400A9
:1012400003208DF8160005A91C48FFF751FF042064
:101250008DF817000820ADF8140005A91748FFF70E
:1012600047FF01940020ADF810000C20ADF80E00EF
:101270000020ADF80C00ADF80A00ADF8080001A997
:101280000D4802F0E7FC01210B4802F02CFC012282
:1012900040F22551084802F0B8FC26208DF80000E5
:1012A00001208DF803008DF801008DF802006846DA
:1012B00001F030FA06B010BD0044004000080140C3
:1012C00000BFFEE700B500200E4908600E48006828
:1012D00020F0F0000C4908600846006840F030003B
:1012E000086000200949C1F8A40100F011F80120AC
:1012F0000449086000F00CF800200449C1F8A0017E
:1013000000BD0000A0812142040C01400080214268
:101310005A2000E000BF011EA0F10102D0B2F9D1B5
:101320007047000000B500200E4908600E480068B4
:1013300020F0F0000C4908600846006840F03000DA
:10134000086001200949C1F8A401FFF7E1FF01206D
:1013500004490860FFF7DCFF00200449C1F8A00140
:1013600000BD0000A0812142040C01400080214208
:1013700030B5044600231648006820F0F0001449F8
:1013800008600846006840F080000860002514E00E
:10139000002010490860FFF7BBFF01200E49C1F88B
:1013A000A0015806030E0B487C38006808B1581C91
:1013B000C3B2FFF7ADFF681CC5B2082DE8DB14B956
:1013C000FFF7B0FF01E0FFF77DFF184630BD0000DA
:1013D000040C0140A08121420080214210B5034647
:1013E0001248006820F0F0001049086008460068C4
:1013F00040F03000086000200D490860002412E031
:10140000D8090B49091D08605806030E0120094937
:10141000C1F8A001FFF77CFF002005490860FFF735
:1014200077FF601CC4B2082CEADB10BD040C01403D
:10143000A08121420080214200B50E48006820F0C2
:10144000F0000C4908600846006840F03000086071
:101450000120094908600949C1F8A001FFF758FFB8
:10146000002005490860FFF753FF00200349C1F839
:10147000A00100BD040C0140A48121420080214252
:1014800000B50E48006820F0F0000C4908600846DE
:10149000006840F0300008600020094908600949F0
:1014A000C1F8A401FFF734FF012005490860054990
:1014B000C1F8A401FFF72CFF00BD0000040C01409F
:1014C000A08121420080214200B500231448006819
:1014D00020F0F000124908600846006840F08000E3
:1014E000086001200F490860FFF712FF01200E4934
:1014F000C1F8A001FFF70CFF07E0581CC3B2FA2B9C
:1015000003DDFFF7BDFF012000BD064880380068FD
:101510000028F2D10349091F086000BFF4E700006A
:10152000040C0140A4812142008021420146490669
:10153000084A926942F00102064B9A61064A5268D3
:1015400022F0E062044B5A601A4652680A435A601D
:1015500070470000001002400000014010B54FF439
:1015600080710348FEF728FE00200249088010BD64
:10157000CF0600201605002070B5054600BF00F01C
:101580003FFA80B90DA10F48FEF72DFE044654B175
:101590003A212046FEF739FE044614B1641C204669
:1015A00070BD0020FCE70A2003F0B8FE281EA5F15C
:1015B00001018DB2E3D100BFF2E700004950442C95
:1015C00000000000CF06002008B50121142001F022
:1015D0000FFE10208DF80300C002ADF800000320BC
:1015E0008DF8020069466B48FFF782FD1020ADF8C8
:1015F000000069466748FFF77BFD28208DF803004F
:101600002020ADF8000069466248FFF771FD012215
:1016100010216048FFF7FBFD0122D1035D48FFF771
:10162000F6FDFA2003F07AFE00224FF400415948FB
:10163000FFF7EDFD4FF4FA7003F070FEFFF78EFF39
:1016400055A1574802F07DFB03E04FF4FA7003F018
:1016500065FE54A154A000F07FF90028F5D154A1F3
:101660004F4802F06EFB03E04FF4FA7003F056FEB1
:1016700053A157A000F070F90028F5D157A14848B0
:1016800002F05FFB03E04FF4FA7003F047FE57A14E
:1016900057A000F061F90028F5D158A1404802F0A8
:1016A00050FB03E04FF4FA7003F038FE4FA157A04F
:1016B00000F052F90028F5D157A1394802F041FB5A
:1016C00003E04FF4FA7003F029FE57A158A000F090
:1016D00043F90028F5D15AA1314802F032FB03E06A
:1016E0004FF4FA7003F01AFE2EA15AA000F034F95C
:1016F0000028F5D15CA12A4802F023FB03E04FF457
:10170000FA7003F00BFE27A15FA000F025F9002876
:10171000F5D164A1224802F014FB03E04FF4FA7003
:1017200003F0FCFD1FA163A000F016F90028F5D11D
:1017300064A11B4802F005FB03E04FF4FA7003F0CC
:10174000EDFD18A164A000F007F90028F5D166A10D
:10175000134802F0F6FA03E04FF4FA7003F0DEFDEE
:1017600010A162A000F0F8F80028F5D163A10C48A0
:1017700002F0E7FA03E04FF4FA7003F0CFFD64A142
:1017800065A000F0E9F80028F5D16EA1044802F048
:10179000D8FA08BD00100140312E2041540D0A0036
:1017A000004400404F4B000041540D0A000000006F
:1017B000322E2041542B4350494E3F0D0A00000069
:1017C0002B4350494E3A20524541445900000000F5
:1017D00041542B4350494E3F0D0A0000332E204107
:1017E000542B435245473F0D0A000000302C310076
:1017F00041542B435245473F0D0A0000342E2041EF
:10180000542B43475245473F0D0A000041542B4398
:10181000475245473F0D0A00352E2041542B43497E
:1018200050534855540D0A0053485554204F4B000F
:1018300041542B434950534855540D0A00000000B1
:10184000362E2041542B4347434C4153533D2242B3
:10185000220D0A0041542B4347434C4153533D2230
:1018600042220D0A00000000372E2041542B43472E
:1018700044434F4E543D312C224950222C22434D9B
:101880004E4554220D0A000041542B434744434F18
:101890004E543D312C224950222C22434D4E45546A
:1018A000220D0A00382E2041542B43474154543D09
:1018B000310D0A0041542B43474154543D310D0A28
:1018C00000000000392E2041542B4349504D5558FB
:1018D0003D300D0A0000000041542B4349504D5546
:1018E000583D300D0A00000031302E2041542B436A
:1018F0004950484541443D310D0A000031312E2008
:1019000041542B43495053544152540D0A00000096
:10191000434F4E4E4543540041542B43495053547A
:101920004152543D22544350222C223138332E321E
:1019300033302E34302E3339222C363030320D0AEB
:101940000000000031322E204D3633313220496EF6
:101950006974204F4B0D0A002DE9F04104460D46F5
:10196000C8262046FEF75BFC87B23A4621460F4860
:1019700002F00BFA13E000F043F868B90C490DA02F
:1019800002F01CFA29460A48FEF72DFC20B1FFF7A9
:10199000E5FD0020BDE8F0810A2003F0BFFC301E09
:1019A000A6F10101CEB2E6D10120F3E700380140F3
:1019B000CF0600202573000030B589B004460D46DF
:1019C000FFF7CCFD2A4608A101A802F007FA0AA1F8
:1019D00001A8FFF7C1FF20B92A462146074802F0B7
:1019E000D4F909B030BD000041542B434950534550
:1019F0004E443D25640D0A003E00000000380140C1
:101A00000A48008808B9012070470848008808493A
:101A10000988884203D1002004490880F4E703487C
:101A20000088034908800120EEE700001605002029
:101A3000180500202DE9FC4104460D4616466B466C
:101A400006223B21682000F0E2F90746BFB99DF865
:101A500001009DF8001040EA012000B220809DF8AE
:101A600003009DF8021040EA012000B228809DF892
:101A700005009DF8041040EA012000B2308038468D
:101A8000BDE8FC8110B500200E4908600E480068D2
:101A900020F470400C4908600846006840F440504B
:101AA000086000200949C1F8AC0100F011F80120DC
:101AB0000449086000F00CF800200449C1F8A801AE
:101AC00010BD0000A8812142040C01400080214289
:101AD00010B5022003F048FC10BD00000C488069DE
:101AE00040F008000A4988610A48006820F47F40F5
:101AF000084908600846006840F44C5008600548F2
:101B00000830006840F440600249083108607047BE
:101B100000100240040C014010B500200E4908607E
:101B20000E48006820F470400C49086008460068C0
:101B300040F44050086001200949C1F8AC01FFF7AA
:101B4000C7FF012004490860FFF7C2FF00200449D5
:101B5000C1F8A80110BD0000A8812142040C014079
:101B60000080214270B5054600241648006820F424
:101B70007040144908600846006840F4004008605E
:101B8000002614E0002010490860FFF7A1FF0120A3
:101B90000E49C1F8A8016006040E0B487C380068A5
:101BA00008B1601CC4B2FFF793FF701CC6B2082EC8
:101BB000E8DB15B9FFF7B0FF01E0FFF763FF204650
:101BC00070BD0000040C0140A88121420080214228
:101BD00070B504461248006820F47040104908604F
:101BE0000846006840F44050086000200D49086035
:101BF000002512E0E0090B49091D08606006040E8B
:101C000001200949C1F8A801FFF762FF002005493A
:101C10000860FFF75DFF681CC5B2082DEADB70BDE8
:101C2000040C0140A88121420080214210B50E48D9
:101C3000006820F470400C4908600846006840F4D1
:101C4000405008600120094908600949C1F8A8010D
:101C5000FFF73EFF002005490860FFF739FF00202D
:101C60000349C1F8A80110BD040C0140AC81214218
:101C70000080214210B50E48006820F470400C49E5
:101C800008600846006840F4405008600020094998
:101C900008600949C1F8AC01FFF71AFF01200549A6
:101CA00008600549C1F8AC01FFF712FF10BD000044
:101CB000040C0140A88121420080214210B500247B
:101CC0001448006820F47040124908600846006813
:101CD00040F40040086001200F490860FFF7F8FE5B
:101CE00001200E49C1F8A801FFF7F2FE07E0601CD1
:101CF000C4B2FA2C03DDFFF7BDFF012010BD06487A
:101D0000803800680028F2D10349091F086000BF2D
:101D1000F4E70000040C0140AC8121420080214224
:101D200010B52948806940F0040027498861274898
:101D3000006820F07040254908600846006840F0BF
:101D4000405008600120FFF7F1FB002020490860A7
:101D5000FFF7C4FE80216B2000F0DDF8642003F063
:101D6000DDFA00216B2000F0D6F8032000F091F896
:101D7000002000F086F8322000F0B0F80021382072
:101D800000F0C9F800216A2000F0C5F800212320E6
:101D900000F0C1F88021372000F0BDF8752000F078
:101DA00019F80446682C0BD101216B2000F0B3F820
:101DB00000216C2000F0AFF8322000F08FF801E035
:101DC000012010BD0020FCE7001002400408014083
:101DD000BC01214270B50446FFF728FFD020FFF771
:101DE000F7FEFFF76BFF2046FFF7F2FEFFF766FFF7
:101DF000FFF71CFFD120FFF7EBFEFFF75FFF00208E
:101E0000FFF7B0FE0546FFF735FF284670BD2DE908
:101E1000F04106460F4614461D46FFF707FF002116
:101E200041EA4601C8B2FFF7D3FEFFF747FF20B1F2
:101E3000FFF720FF0120BDE8F0813846FFF7C8FE1C
:101E4000FFF73CFFFFF7F2FE012101EB4601C8B2AC
:101E5000FFF7BEFEFFF732FF0DE0012C04D100209A
:101E6000FFF780FE287003E00120FFF77BFE28705B
:101E7000601EC4B26D1C002CEFD1FFF7FBFE0020EA
:101E8000D9E710B50446E006010E1C2000F043F827
:101E900010BD10B50446E006010E1B2000F03BF813
:101EA00010BD70B504460025BC2C01DB012510E0F7
:101EB000622C01DB02250CE02A2C01DB032508E063
:101EC000142C01DB042504E00A2C01DB052500E0CD
:101ED000062529461A2000F01EF870BD70B504468C
:101EE000B4F57A7F01DD4FF47A74042C00DA04240F
:101EF0004FF47A7090FBF4F0401EC5B229461920C9
:101F000000F009F80546264604EBD671C1F34F00F0
:101F1000FFF7C7FF70BD70B505460C46FFF786FE9C
:101F2000D020FFF755FEFFF7C9FE18B1FFF7A2FE5C
:101F3000012070BD2846FFF74BFEFFF7BFFE20468D
:101F4000FFF746FEFFF7BAFE18B1FFF793FE012038
:101F5000EFE7FFF78FFE0020EBE72DE9F0410546A4
:101F60000E4617469846FFF761FE002141EA4501FB
:101F7000C8B2FFF72DFEFFF7A1FE20B1FFF77AFEF2
:101F80000120BDE8F0813046FFF722FEFFF796FE04
:101F900000240CE018F80400FFF71AFEFFF78EFE8D
:101FA00018B1FFF767FE0120EBE7601CC4B2BC422A
:101FB000F0DBFFF75FFE0020E3E710B50446207B6F
:101FC000012802D1206803F0E1FF0020206060605A
:101FD000A060207310BD0246002301230DE002F033
:101FE0007F000870D2092AB1087840F0800008709C
:101FF000491C01E0184670475B1C042BEFDD4FF0D5
:10200000FF30F8E770B504460E460025206898B901
:1020100001202073304604F0C9FE20602068E0B142
:1020200000206060A66003E00020216848556D1C18
:10203000A068A842F8D810E00220207303E0002036
:10204000216848556D1CA068A842F8D8002060603F
:10205000A068B04201D20020206070BD2DE9FF5F72
:1020600007460D4690463846FEF7D9F886B2284610
:10207000FEF7D5F81FFA80FA4FF00009B01D04F002
:1020800095FE04461CB9012004B0BDE8F09FB11DC7
:102090002046FEF791F812A0016821608088A08098
:1020A000324639462046FEF7CEF82846FEF7B7F806
:1020B00083460120002100915B462A46CDE90208B3
:1020C000019121460A2000F05FF910B94FF0000994
:1020D00001E04FF00109204603F058FF4846D3E7DE
:1020E00024637273702F00002DE9FF4F83B0824686
:1020F0008B469146159C0025002002900F270190E9
:102100004846FEF78CF80FFA80F8B9F1000F03D1BA
:10211000012007B0BDE8F08F08F10200384487B213
:10212000109808B145F00205129878B145F0040501
:102130001298FEF774F8C0B202901398FEF76FF889
:1021400001460298001D0844384487B2119820B116
:10215000012804D0022808D104E000BF07E045F0C0
:102160000C0504E045F0140501E00220D1E700BFB2
:10217000149808B145F02405BAF1000F02D0BBF164
:10218000000F01D10320C4E745F0C0055046FEF71B
:1021900046F806465846FEF742F83044001D3844DB
:1021A00087B239462046FFF72DFF206808B9042082
:1021B000AFE739462068FDF7FFFF10216268501C29
:1021C000606020688154D4E90023D118781FFFF79C
:1021D00002FF00B201900198002804DA2046FFF7C0
:1021E000ECFE052095E761680198084460600021D5
:1021F0006268501C60602068815404216268501C31
:102200006060206881544D216268501C60602068C5
:10221000815451216268501C6060206881545421AF
:102220006268501C6060206881546268501C606065
:102230002068815404216268501C606020688154C9
:102240006168481C6060206845540698010A62680D
:10225000501C6060206881540698C1B26268501CAE
:10226000606020688154C8F307216268501C606078
:10227000206881546268501C6060206800F8028009
:10228000D4E90012881842464946FDF7DCFF606831
:102290004044606005F00400B8B30026139808B904
:1022A00038A013901298FDF7BAFF86B2310A62681F
:1022B000501C6060206881546268501C6060206817
:1022C0008654D4E90012881832461299FDF7BBFFF4
:1022D0006068304460601398FDF7A1FF86B2310A50
:1022E0006268501C6060206881546268501C6060A5
:1022F00020688654D4E90012881832461399FDF7F5
:10230000A2FF60683044606000BF05F08000C8B183
:102310005046FDF784FF86B2310A6268501C606047
:10232000206881546268501C606020688654D4E93B
:102330000012881832465146FDF785FF6068304428
:10234000606000BF05F04000C8B15846FDF767FF68
:1023500086B2310A6268501C6060206881546268ED
:10236000501C606020688654D4E9001288183246F8
:102370005946FDF768FF60683044606000BF002088
:10238000C7E60000000000002DE9FF4F83B0834640
:1023900090469946139C002600250020029001904B
:1023A0000027BBF1000F03D1012007B0BDE8F08F7B
:1023B00000250AE00498405D232803D00498405D7E
:1023C0002B2801D10220F0E76D1C0498405D002805
:1023D000F0D147F03007119808B147F0010705EB3D
:1023E0000900861C109820B1012804D002280AD1C7
:1023F00005E000BF09E047F00207B61C05E047F022
:102400000407B61C01E00320CFE700BF98F80000E6
:10241000022822D14FF0000A00BF50460AF1010AFB
:1024200018F800007D28F8D1AAF1030A0AF1070084
:1024300002900298A9EB000AF01CA0EB0A012046CA
:10244000FFF7E0FD206808B90420AEE7F21CA2EB1C
:102450000A012068FDF7B0FE0BE0F11C2046FFF7F3
:10246000D1FD206808B904209FE7F11C2068FDF722
:10247000A3FE6168481C606020684754D4E90002EC
:1024800081183046FFF7A7FD01900198002804DA73
:102490002046FFF792FD052087E761680198084410
:1024A0006060C5F307216268501C60602068815439
:1024B0006268501C606020688554D4E90012881856
:1024C0002A460499FDF7BFFE6068284460601098B2
:1024D00060B14FEA1B216268501C60602068815423
:1024E0006268501C6060206800F802B0B8F1000F0C
:1024F00019D098F8000002280BD1D4E900128818EE
:102500004146029AFDF73FFE616802980844606008
:1025100009E0D4E9001288184A464146FDF733FE27
:1025200060684844606000203FE700002DE9FF41FB
:1025300007460D4690461E460A9C01200021CDE923
:102540000001EB1C0A460FA1CDE902040A20FFF7A7
:102550001BFF88B96168481C606020684654C5F359
:1025600007216268501C6060206881546268501CBA
:1025700060602068855403E0012004B0BDE8F0816C
:102580000020FAE724647000F0B504460D462646A4
:10259000012300201060002114E0775C07F07F0722
:1025A000106807FB03001060705C00F0800008B941
:1025B000481CF0BDDB01B3F5001F02D36FF0010032
:1025C000F7E7491CA942E8DB4FF0FF30F1E72DE9BE
:1025D000F84380460C4615461E462F2108F106009A
:1025E000FDF713FE07460020009017B90120BDE853
:1025F000F8837F1C6A46042108F10100FFF7C4FF3D
:10260000252004F0D3FB2060206808B90220EEE703
:1026100025212068FDF7D0FD242239462068FDF7EA
:10262000B2FD243700982C3830803188481C04F0E3
:10263000BDFB2860286820B9206803F0A7FC0320B0
:10264000D5E73288511C2868FDF7B6FD3288394637
:102650002868FDF798FD0020C9E701464878022860
:1026600001D001207047887810B18878012801D105
:10267000C878F7E7FF20F5E701464878022801D03F
:1026800001207047887820B9C8780A2801D1002035
:10269000F7E70120F5E70000F8B50446FF272078AA
:1026A0000511012D01DB0E2D01DD3846F8BD032D8E
:1026B00024D1002000906A460421601CFFF764FFCB
:1026C0002044461C0098022803D3207800F0010023
:1026D00008B1FF20EAE77078317840EA0120801CD9
:1026E0000099884201D9FF20E0E706A1B01CFDF760
:1026F0007AFD08B10F2700E0032700E02F46384697
:10270000D4E70000246372657100000000BFFEE79B
:102710007047000070B5002100230F22C47804B375
:10272000154C246804F4E064C4F5E064210AC1F1A6
:102730000403CA40447804FA03F184781440214326
:1027400009010E4C0678A155047804F01F050124F8
:10275000AC4005786D11AD0005F1E025C5F80041EC
:1027600009E0047804F01F050124AC40044D06780C
:10277000761145F8264070BD0CED00E000E400E065
:1027800080E100E002490143024A11607047000005
:102790000000FA050CED00E008B54FF4E060FFF72B
:1027A000F1FF1C208DF8000001208DF803000020AF
:1027B0008DF801008DF802006846FFF7ABFF08BDF9
:1027C00070B5002419E004F1B001C8B2002100F096
:1027D00007FA0021084600F003FA0021102000F05B
:1027E000FFF9002505E00121002000F0F9F9681C3F
:1027F000C5B2802DF7DB601CC4B2082CE3DB70BDD2
:1028000008B50121042000F0F3FCB020ADF8000071
:1028100010208DF8030003208DF80200694655480A
:10282000FEF766FCB0215348FEF7EFFC01210820BB
:1028300000F0DEFC40F20310ADF8000010208DF82F
:10284000030003208DF8020069464B48FEF750FC58
:1028500040F203114848FEF7D8FC01214648FEF734
:10286000D4FC642002F05AFD01214348FEF7CBFC62
:10287000C82002F053FD01213F48FEF7C6FC0021AD
:10288000AE2000F0ADF90021084600F0A9F90021C2
:10289000102000F0A5F90021402000F0A1F900214E
:1028A000812000F09DF90021CF2000F099F900214E
:1028B000A12000F095F90021C82000F091F9002135
:1028C000A62000F08DF90021A82000F089F9002150
:1028D0003F2000F085F90021D32000F081F900218C
:1028E000084600F07DF90021D52000F079F900219B
:1028F000802000F075F90021D92000F071F9002145
:10290000F12000F06DF90021DA2000F069F90021D2
:10291000122000F065F90021DB2000F061F90021B0
:10292000402000F05DF90021202000F059F900213D
:10293000022000F055F900218D2000F051F900210E
:10294000142000F04DF90021A42000F049F90021E5
:10295000A62000F045F90021AF2000F041F9002148
:10296000AF2000F03DF9FFF72BFF0021084600F0F3
:1029700005F808BD00080140000C014070B5044690
:102980000D4605F1B001C8B2002100F029F910216F
:1029900041EA1410002100F023F904F00F0141F086
:1029A0000100002100F01CF970BD000010B50C22E0
:1029B0000021084600F04AF80D220021102000F006
:1029C00045F821A20021202000F0EEF80E2200217F
:1029D000402000F03BF80F220021502000F036F894
:1029E00019A20021602000F0DFF807220321002057
:1029F00000F02CF808220321102000F027F80B2209
:102A00000321502000F022F80FA20321202000F023
:102A1000CBF803220621002000F018F8042206213A
:102A2000102000F013F809220621202000F00EF8F3
:102A30000A220621302000F009F803A206214020D6
:102A400000F0B2F810BD00003A0000002DE9F0419E
:102A500080460E461546002731464046FFF78EFF5A
:102A600000240AE0124A02EB8511085D012100F002
:102A7000B7F8781CC7B2601CC4B2102CF2DB701C13
:102A8000C1B24046FFF77AFF00240CE06900491C00
:102A9000074A02EB4111085D012100F0A1F8781C02
:102AA000C7B2601CC4B2102CF0DBBDE8F08100009E
:102AB000800000202DE9F04107460E469046002593
:102AC0000024A8F12000C5B27F2F02DD0027B01C32
:102AD000C6B231463846FFF751FF002408E004EB48
:102AE00005110F4A505C012100F07AF8601CC4B255
:102AF000082CF4DB701CC1B23846FFF73FFF0024FE
:102B000009E004EB05110831054A505C012100F091
:102B100067F8601CC4B2082CF3DBBDE8F08100004C
:102B2000048F00082DE9FF5F074691461D460E9E63
:102B30004FF0000A002433E0281B401EC1B20A20D7
:102B400005F0A6FAB9FBF0F00A21B0FBF1F201FBA7
:102B50001208BAF1000F13D1681EA04210DDB8F1BF
:102B6000000F0BD1B34606EBDB71491001FB04717A
:102B7000C8B220220199FFF79DFF0FE04FF0010A34
:102B8000B34606EBDB71491001FB0471C8B208F1D2
:102B90003001CAB20199FFF78DFF00BF601CC4B2BB
:102BA000AC42C9DBBDE8FF9F2DE9F04104460F466A
:102BB000154600260EE0AA5D39462046FFF77AFF4B
:102BC00004F10800C4B2782C02DD0024B81CC7B29E
:102BD000701CC6B2A85D0028EDD1BDE8F0810000F0
:102BE00070B504460E4626B102211848FEF70DFBCB
:102BF00003E002211548FEF706FB10211448FEF7FA
:102C000002FB002517E020211148FEF7FCFA04F032
:102C1000800020B180210E48FEF7F7FA03E0802102
:102C20000B48FEF7F0FA20210948FEF7EEFA60069D
:102C3000040E681CC5B2082DE5DB10210448FEF720
:102C4000E4FA02210148FEF7E0FA70BD000C0140F1
:102C50000008014030B58BB0002007900890099023
:102C60000A90012531A034A336A238A10090434830
:102C700001F067F807A8002102910391CDE9041043
:102C800000912B0229A201912BA12EA0FFF72CFA73
:102C9000002843D1089A91B20798FEF78DFE4FF4B1
:102CA0009670FEF769FC0446002C33D02046FFF7EF
:102CB000F3FC02282ED12046FFF7CFFC062823D2B2
:102CC000DFE800F003090E13181D2DA12B4801F0B9
:102CD00038F800251DE02FA1284801F032F818E04F
:102CE00033A1264801F02DF813E03AA1234801F062
:102CF00028F80EE03FA1214801F023F809E046A1A1
:102D00001E4801F01EF804E04EA11C4801F019F81D
:102D100000BF00BF07A8FFF750F903E050A1174814
:102D200001F00FF828460BB030BD000038353533C0
:102D30003633343530000000687A70313233343540
:102D40003600000034373031363900004F6E654EA2
:102D500065745F4465764C696E6B0D0A50524F493D
:102D6000443A2025732C09415549463A2025732CB5
:102D70000944455649443A25730D0A000044004071
:102D8000546970733A09C1ACBDD3B3C9B9A60D0A71
:102D9000000000005741524E3A09C1ACBDD3CAA74A
:102DA000B0DCA3BAD0ADD2E9B4EDCEF30D0A000089
:102DB0005741524E3A09C1ACBDD3CAA7B0DCA3BA41
:102DC000B7C7B7A8B5C4636C69656E7469640D0A4A
:102DD000000000005741524E3A09C1ACBDD3CAA70A
:102DE000B0DCA3BAB7FECEF1C6F7CAA7B0DC0D0AB5
:102DF000000000005741524E3A09C1ACBDD3CAA7EA
:102E0000B0DCA3BAD3C3BBA7C3FBBBF2C3DCC2EB2A
:102E1000B4EDCEF30D0A00005741524E3A09C1AC51
:102E2000BDD3CAA7B0DCA3BAB7C7B7A8C1B4BDD3D6
:102E300028B1C8C8E7746F6B656EB7C7B7A8290D0E
:102E40000A0000004552523A09C1ACBDD3CAA7B02E
:102E5000DCA3BACEB4D6AAB4EDCEF30D0A000000BE
:102E60005741524E3A094D5154545F5061636B655E
:102E700074436F6E6E656374204661696C65640DA2
:102E80000A00000070B5A0B0044680216846FDF736
:102E900093F917A12046FDF7EAF980216846FDF76E
:102EA0008BF918480068FDF7C0FC05462A460B461A
:102EB00015A1684600F092FF69462046FDF787F9A4
:102EC00080216846FDF778F91C48B0F900201CA164
:102ED000684600F083FF69462046FDF778F922A195
:102EE0002046FDF774F92046FDF799F920B070BD32
:102EF0007B226461746173747265616D73223A5BE5
:102F000000000000600000207B226964223A2274E5
:102F1000656D7065726174757265222C22646174CE
:102F200061706F696E7473223A5B7B2276616C7597
:102F300065223A252E31667D5D7D2C0064000020DF
:102F40007B226964223A225A69746169222C2264C4
:102F5000617461706F696E7473223A5B7B22766173
:102F60006C7565223A25647D5D7D00002DE9F04198
:102F70008CB080460020089009900A900B90079032
:102F80000690059000250026002400274046FFF704
:102F900083FB0546042D25D00F2D2CD105AB07AAA8
:102FA00006A94046FFF713FB0646D6B9BDF8140044
:102FB00000902BA13348DDE9062300F0C2FE08AAE9
:102FC000DDE90601FFF74AF858B92FA12D4800F0B6
:102FD000B8FE099A91B20898FEF7EEFC08A8FEF731
:102FE000ECFF0BE04046FFF747FB18B92CA1254842
:102FF00000F0A7FE02E04FF0FF3600BF00BFFEF773
:10300000ADFA701C10B90CB0BDE8F0817D210798B5
:10301000FDF7FBF80446B4B1701CA0B1641C05E0D8
:1030200014F8012B38467F1C02A90A542078302856
:1030300002DB20783928F3DD002002A9C85502A858
:10304000FDF71EF907460F2D01D0032D05D1069877
:1030500002F09CFF079802F099FF00BFD3E7000041
:10306000636D6469643A2025732C207265713A207F
:1030700025732C207265715F6C656E3A2025640D96
:103080000A00000000440040546970733A09536517
:103090006E6420436D64526573700D0A0000000079
:1030A000546970733A094D515454205075626C69DB
:1030B00073682053656E64204F4B0D0A00000000BA
:1030C00030B5ADF5057D002081908290839084908D
:1030D000002400251BA1234800F033FE4FF40071AB
:1030E00001A8FDF769F801A8FFF7CCFE0446002C03
:1030F00025D081A80123002221B200901AA0FFF759
:1031000015FAC0B907E001A8415D829A501C82906F
:10311000819881546D1CA542F5DB829A91B2819809
:10312000FEF74AFC13A10F48829A00F00AFE81A81C
:10313000FEF743FF03E013A10A4800F002FE0DF57D
:10314000057D30BD546970733A094F6E654E6574E4
:103150005F53656E64446174612D4D5154540D0A82
:103160000000000000440040383535333633343534
:103170003000000053656E64202564204279746538
:10318000730D0A005741524E3A094D5154545F4E47
:103190006577427566666572204661696C65640D87
:1031A0000A00000010B501F061FF10BD704700007B
:1031B00029B1064AD2690243044BDA6104E0034AAA
:1031C000D2698243014BDA6170470000001002406F
:1031D00029B1064A12690243044B1A6104E0034A0A
:1031E00012698243014B1A617047000000100240CF
:1031F00029B1064A92690243044B9A6104E0034AEA
:1032000092698243014B9A617047000000100240AE
:1032100029B1064AD2680243044BDA6004E0034A4B
:10322000D2688243014BDA60704700000010024010
:1032300030B500210022002400232D4D6D6805F0DB
:103240000C0121B1042905D0082923D105E0294D1D
:10325000056022E0274D05601FE0254D6D6805F4EF
:103260007012234D6D6805F48034022505EB9242FF
:103270001CB9214D554305600BE01D4D6D6805F4EB
:1032800000351DB11C4D5543056002E0194D5543F5
:10329000056002E0174D056000BF00BF144D6D686A
:1032A00005F0F0010909154D6B5C0568DD404560CE
:1032B0000F4D6D6805F4E061090A104D6B5C4568BF
:1032C000DD4085600A4D6D6805F46051C90A0B4DFB
:1032D0006B5C4568DD40C560054D6D6805F4404197
:1032E000890B074D6B5CC568B5FBF3F5056130BD17
:1032F0000010024000127A0000093D001400002076
:10330000240000202DE9F04F8BB0044689469246F8
:1033100021462046FDF719F805463D480168284634
:10332000FCF7BBFF3A49086049464846FDF70DF8EF
:103330000546384801682846FCF7AFFF3549086064
:1033400035480068401C34490860BAF1000F5BD072
:1033500032480078401C314908700846007803283C
:1033600052D12D480068FDF7F1F9804641462848C2
:103370000068FDF71CF80746FDF757FA054603F00D
:10338000A7F9CDE9040124480068FDF7DFF90146FB
:10339000019020480068FDF70AF88346FDF745FADA
:1033A000074603F095F9054600221D4BFDF7E4F8AA
:1033B000CDE90201DDE90423FDF750F9CDE906016D
:1033C000FDF75EFA09900020089016490998FDF76C
:1033D0007DFA06D20998FDF7F5F94238C0B2089097
:1033E0000AE011490998FDF771FA05D20998FDF72D
:1033F000E9F93238C0B2089005F05EFB0B49089835
:10340000085C0B49087000BF0BB0BDE8F08F0000EE
:103410000405002008050020100500200C050020F0
:10342000000059400000844200004842D8040020B7
:1034300014050020704710B500F002F810BD000020
:103440000CB50020019000903348006840F48030B3
:103450003149086000BF3048006800F40030009037
:103460000198401C0190009818B90198B0F5A06F20
:10347000F1D12948006800F4003010B1012000901B
:1034800001E0002000900098012843D12348006803
:1034900040F01000214908600846006820F0030051
:1034A00008600846006840F0020008601A4840685A
:1034B000194948600846406848600846406840F43A
:1034C000806048600846406820F47C1048600846E8
:1034D000406840F4E81048600846006840F080709A
:1034E000086000BF0C48006800F000700028F9D0A8
:1034F0000948406820F003000749486008464068D2
:1035000040F00200486000BF0348406800F00C0033
:103510000828F9D10CBD0000001002400020024034
:10352000042808D14FF0E021096941F004014FF06F
:10353000E022116107E04FF0E021096921F0040168
:103540004FF0E0221161704710B51348006840F059
:1035500001001149086008464068104908400E49BA
:103560004860084600680E4908400B490860084654
:10357000006820F4802008600846406820F4FE00BF
:1035800048604FF41F008860FFF755FF4FF0006060
:103590000449086010BD0000001002400000FFF860
:1035A000FFFFF6FE08ED00E010B50121880700F0EE
:1035B0005FF948B107480068401C064908600648A2
:1035C0000068401C044908600121880700F04DF89C
:1035D00010BD00005C0000205800002010B5012143
:1035E000064800F045F940B105480068401C044910
:1035F00008600121014800F038F810BD00040040C7
:10360000700000207FB505460C4601210220FFF71F
:10361000CFFDADF80850ADF804400020ADF80A0029
:10362000ADF8060001A90E4800F03CF90122114650
:103630000B4800F02EF91D208DF8000000208DF8B9
:10364000010003208DF8020001208DF80300684678
:10365000FFF760F80121024800F00AF87FBD000082
:1036600000040040CA4302827047CA430282704786
:1036700021B1028842F00102028004E002884FF684
:10368000FE731A400280704710B5044668488442B1
:1036900008D10121C014FFF7BBFD0021E014FFF7A2
:1036A000B7FDC4E0B4F1804F08D101210846FFF70F
:1036B0008FFD00210120FFF78BFDB8E05D488442BB
:1036C00008D101210220FFF783FD00210220FFF72E
:1036D0007FFDACE05848844208D101210420FFF767
:1036E00077FD00210420FFF773FDA0E053488442DA
:1036F00008D101210820FFF76BFD00210820FFF70A
:1037000067FD94E04E48844208D101211020FFF764
:103710005FFD00211020FFF75BFD88E049488442EF
:1037200008D101212020FFF753FD00212020FFF7C1
:103730004FFD7CE04448844208D101214014FFF74A
:1037400067FD00216014FFF763FD70E03F4884428D
:1037500009D10121C804FFF75BFD00214FF40020CF
:10376000FFF756FD63E03A48844209D1012108057C
:10377000FFF74EFD00214FF48010FFF749FD56E0A2
:103780003448844209D101214805FFF741FD002159
:103790004FF40010FFF73CFD49E02F48844208D168
:1037A00001214020FFF714FD00214020FFF710FD0C
:1037B0003DE02A48844208D101218020FFF708FD1E
:1037C00000218020FFF704FD31E02548844208D124
:1037D00001218015FFF7FCFC0021A015FFF7F8FC84
:1037E00025E02048844209D101210804FFF710FD9B
:1037F00000214FF48030FFF70BFD18E01A48844297
:1038000009D101214804FFF703FD00214FF40030E6
:10381000FFF7FEFC0BE01548844208D10121880423
:10382000FFF7F6FC00214FF48020FFF7F1FC10BDFC
:10383000002C01400004004000080040000C004043
:10384000001000400014004000340140004C0140D2
:10385000005001400054014000180040001C00408E
:103860000020004000400140004401400048014069
:1038700030B50246002000230024158A05EA010322
:10388000958905EA010413B10CB1012000E0002084
:1038900030BD1AB183890B43838102E083898B4356
:1038A00083817047002202881D4B98420ED01D4B29
:1038B00098420BD0B0F1804F08D01B4B984205D0F6
:1038C0001A4B984202D01A4B984204D14FF68F738C
:1038D0001A404B881A43174B984207D0164B984210
:1038E00004D04FF6FF431A40CB881A4302808B88DE
:1038F00083850B8803850A4B98420BD0094B98426D
:1039000008D00E4B984205D00D4B984202D00D4B7B
:10391000984201D10B7A038601238382704700000D
:10392000002C014000340140000400400008004029
:10393000000C004000100040001400400040014016
:10394000004401400048014000B587B0012144F225
:103950000400FFF74DFC244800F0D2F84FF400704B
:10396000ADF8180003208DF81A0018208DF81B0000
:1039700006A91E48FDF7BCFB4FF48060ADF81800A7
:1039800048208DF81B0006A91848FDF7B1FB25203B
:103990008DF8040002208DF8050001208DF8060046
:1039A0008DF8070001A8FEF7B5FE4FF4E130029054
:1039B0000020ADF80C00ADF80E00ADF81000ADF829
:1039C00014000C20ADF8120002A9074800F042F9DB
:1039D000012240F22551044800F017F90121024864
:1039E00000F081F807B000BD003801400008014038
:1039F00010B540F225510E4800F0DDF8B0B10D4889
:103A00000088FF2802D900200A4908800848001DC4
:103A10000088C1B2074802880088401C054B188006
:103A2000054881542021024800F054F810BD0000E0
:103A30000038014016050020CF06002010B540F2E6
:103A40002551204800F0B7F8002839D01D4800F073
:103A50006DF9C4B2242C02D100201B4908801A48F9
:103A600001880088401C184A108018484454007887
:103A700024281ED1154800794D281AD113484079C1
:103A8000432816D10A2C14D150211148FCF794FB7D
:103A90000D4802880D490E48FCF775FB01200C49C2
:103AA00081F85000002008490880C8210748FCF729
:103AB00083FB05480088C82802DBC820024908802B
:103AC00010BD0000004400407E0000208E05002054
:103AD0005606002001F40072B2F5007F00D100BF4D
:103AE000CA430280704721B1828942F40052828128
:103AF00004E082894DF6FF731A408281704700000E
:103B000010B504462048844209D101218803FFF7FB
:103B10007FFB00214FF48040FFF77AFB32E01B4827
:103B2000844209D101214804FFF752FB00214FF4E0
:103B30000030FFF74DFB25E01548844209D10121F3
:103B40008804FFF745FB00214FF48020FFF740FB7E
:103B500018E01048844209D10121C804FFF738FB5E
:103B600000214FF40020FFF733FB0BE00A488442AA
:103B700008D101210805FFF72BFB00214FF480102D
:103B8000FFF726FB10BD0000003801400044004054
:103B900000480040004C0040005000400246002019
:103BA000B1F5007F00D100BF13880B400BB101209D
:103BB00000E00020704770B5024600240023002575
:103BC000002040F66A16B14200D100BFC1F3421591
:103BD00001F01F03012606FA03F3012D02D1968995
:103BE000334006E0022D02D1168A334001E0968A66
:103BF00033400C12012606FA04F41688344013B13F
:103C00000CB1012000E0002070BDF0B50346002497
:103C100000260025002040F66A17B94200D100BFF7
:103C20001846C1F3421401F01F06012707FA06F5F2
:103C3000012C01D10C3004E0022C01D1103000E045
:103C400014301AB107682F43076002E00768AF43DA
:103C50000760F0BD2DE9F04786B005460E4600240A
:103C6000A24600BFA1460027B08900B100BF2F4681
:103C70002C8A4CF6FF700440F08804432C82AC89F7
:103C80004EF6F3100440B088318908437189084327
:103C90000443AC81AC8A4FF6FF400440B089044332
:103CA000AC8201A8FFF7C4FA1F48874202D1DDF8B1
:103CB00010A001E0DDF80CA0A88900F4004040B19C
:103CC0000AEBCA0000EB0A1031684900B0FBF1F8BA
:103CD00007E00AEBCA0000EB0A1031688900B0FB6C
:103CE000F1F86420B8FBF0F004012009642101FB25
:103CF0001089A88900F4004040B1322000EBC900CF
:103D0000B0FBF1F000F00700044308E0322000EBC4
:103D100009106421B0FBF1F000F00F0004432C8186
:103D200006B0BDE8F08700000038014001468888F1
:103D3000C0F308007047C1F308028280704700BFDB
:103D4000FEE70FB430B5CBB0054601AC50A80090EB
:103D50004FF4947101A8009B4F9A00F053F8002093
:103D600000900BE014F8011B2846FFF7E4FF00BFAA
:103D700040212846FFF712FF0028F9D020780028BC
:103D8000F0D14BB030BC5DF814FB2DE9F041074693
:103D90000C46154600260DE014F8011B3846FFF7C7
:103DA000CAFF00BF40213846FFF7F8FE0028F9D0CF
:103DB000701C86B2AE42EFDBBDE8F0810FB4054B5C
:103DC00010B503A9044A029800F086F910BC5DF80A
:103DD00014FB0000695F0008780000200FB4084B56
:103DE00010B504A902AA039800F076F9044602A9C6
:103DF000002000F013FD204610BC5DF814FB00000D
:103E00001D4800087CB5491E1C461546CDE9000139
:103E1000044B6A462146284600F05EF9009A0021CC
:103E200011707CBD07480008490050EAC12018BF46
:103E300004204A0D18BF40F0010040F2FF72B2EBBF
:103E4000515F08BF40F00200012808BF05207047FD
:103E5000004870475C0500202DE9F0414F1E00EB43
:103E6000C7010446D1E9000115461E4637F0060297
:103E70000DD02A463346FCF77FFB7F1E04EBC703B9
:103E8000D3E90023FCF7D1FA37F00602F1D1022F73
:103E900025D0042F13D0062F18BFBDE8F0812A4685
:103EA0003346FCF769FBD4E90A23FCF7BEFA2A463D
:103EB0003346FCF761FBD4E90823FCF7B6FA2A463F
:103EC0003346FCF759FBD4E90623FCF7AEFA2A4641
:103ED0003346FCF751FBD4E90423FCF7A6FA2A4643
:103EE0003346FCF749FBD4E90223FCF79EFA2A4645
:103EF0003346FCF741FBD4E90023BDE8F041FCF771
:103F000094BA00000022134610460149FCF7A6BBF4
:103F10000000F03F0122FCF727BEFCF786BA002222
:103F2000134610461146FCF799BB40F201320020BF
:103F30004FF0E041FCF718BE024A00201107FCF7E1
:103F400013BE000001FDFFFF02E008C8121F08C1F8
:103F5000002AFAD170477047002001E001C1121F0A
:103F6000002AFBD17047000001490860704700003B
:103F70005C0500202DE9FF5FDDE90220010DDDF881
:103F800038B0024318D044F61050A1F2FF3141433B
:103F90000D140F98012820D0A5EB0B00401C5FEA00
:103FA000000A4FF00004474EDFF81C91A04650462F
:103FB00016D5CAF1000728E00F98012443A2012872
:103FC00008D0002100980F9BC0E90021C0E90243FE
:103FD000BDE8FF9F6FEA0B01F4E7CBF10000DEE7DD
:103FE000074612E0F80707D02246334640464946C6
:103FF000FCF7C2FA804689462246334610461946E7
:10400000FCF7BAFA04460E467F10002FEAD1DDE92C
:104010000201BAF1000F42464B4602DAFCF7ACFA55
:1040200001E0FCF71BFB04460E460022284BFCF780
:104030000FFC03D84FF0FF30014607E00022254B6C
:1040400020463146FCF7F1F9FCF7F6FD102409E0B3
:10405000002C0ADB0A220023FCF758FC019B3032BB
:104060001A55641E50EA0102F2D1641C019AC4F18F
:10407000110314440F9A012A03D0012208430DD1E1
:104080000AE0084304D000204FF0110B0F9080E7A6
:10409000A3EB0B056D1E0DE05B4504DD4FF0000248
:1040A00005F1010504E003DA4FF00002A5F1010576
:1040B000002AECD000980F99C0E90231C0E9004510
:1040C00086E70000000024400000F03F30000000C0
:1040D0000000F0430000E03F2DE9FF4F95B09B4604
:1040E0008946064600250FE2252877D10024274679
:1040F000F84A0121059400E0044316F8013F203BF3
:1041000001FA03F01042F7D130782A2811D06FF06D
:104110002F033078A0F13002092A16D8059A44F00E
:10412000020402EB820203EB42021044761C05906B
:10413000EFE759F8042B0592002A03DA504244F4C1
:104140000054059044F00204761C30782E2816D1D5
:1041500016F8010F44F004042A280DD06FF02F0246
:104160003078A0F13003092B09D807EB870302EB65
:104170004303C718761CF3E759F8047B761C3078A4
:104180006C280FD006DC4C2817D068280DD06A2880
:1041900014D104E0742810D07A280FD10DE044F433
:1041A00000140AE044F4801401E044F440147278EE
:1041B000824202D104F58014761C761C3078662881
:1041C0000BD013DC582877D009DC002875D045289F
:1041D000F6D04628F4D047281AD19DE118E063288C
:1041E00035D0642879D0652812D195E1702873D034
:1041F00008DC6728F1D069286FD06E280DD06F28B1
:1042000006D1B5E073282CD0752875D0782874D0E5
:104210005A46179990476D1C75E1C4F30250022865
:1042200009D003280DD0D9F8001004280DD00D6056
:1042300009F1040967E1D9F80010EA17C1E9005251
:10424000F6E7D9F800100D80F2E70D70F0E719F8E5
:10425000041B8DF8001000208DF80100EA460120B3
:1042600003E059F804AB4FF0FF3061074FF0000155
:1042700002D40DE008F101018846B9420FDA804509
:10428000F8DB1AF808100029F4D108E008F1010160
:1042900088468142FADB1AF808100029F6D1059801
:1042A0005B46A0EB080721463846179A00F094FABF
:1042B000284400EB080507E04DE029E10DE01AF87D
:1042C000010B5A4617999047B8F10108F7D25B469F
:1042D00021463846179A13E142E00A220092C4F3BD
:1042E00002524FF0000A022A08D059F804CB032AE0
:1042F0004FEAEC710AD00DE029E02AE009F107014C
:1043000021F00702F2E802C1914609E00FFA8CFCA5
:104310004FEAEC71042A03D14FFA8CFC4FEAEC719E
:10432000002907DA0A460021DCF1000C61EB0201EA
:104330002D2202E0220504D52B228DF80420012233
:1043400003E0E20701D02022F7E7904659E00A2176
:1043500002E010220DE010214FF0000A00910BE066
:1043600010224FF0000A44F004040827009203E0F2
:1043700008224FF0000A0092C4F30252022A05D02C
:1043800059F804CB0021032A08D009E009F10701FC
:1043900021F00702F2E802C1914605E01FFA8CFC09
:1043A000042A01D10CF0FF0C4FF00008220728D599
:1043B000702806D0009B83F0100353EA0A0305D04F
:1043C0000EE040228DF80420012208E05CEA0102A0
:1043D00006D030228DF804208DF805000222904688
:1043E000009B83F0080353EA0A030AD15CEA010246
:1043F00001D1620705D530228DF804204FF0010865
:104400007F1E582804D034A003900EA802900DE01F
:1044100036A0F9E753466046009AFCF777FA8446DF
:104420000398825C0298401E029002705CEA0100D0
:10443000F0D1029806A9081A00F1200A600702D5F7
:1044400024F4803400E00127574502DDA7EB0A0081
:1044500000E0002000EB0A01009005984144401A5A
:104460000590E00306D45B462146179A059800F0B4
:10447000B3F90544002706E001A85A46C05D179924
:1044800090476D1C7F1C4745F6DBE0030CD55B466F
:104490002146179A059800F09FF9054404E0302062
:1044A0005A46179990476D1C0099481E00900029A4
:1044B000F5DC08E0029802995A460078491C0291FE
:1044C000179990476D1CBAF10001AAF1010AF1DCBD
:1044D00065E10000092801003031323334353637C8
:1044E0003839616263646566000000003031323340
:1044F00034353637383941424344454600000000E0
:1045000000F058F90544761C307800287FF4ECADB3
:1045100019B02846BDE8F08F620700D4062709F1DC
:10452000070222F0070CFCE80223E14603F00048F2
:104530005FEA080C02D00FF2702C0DE05FEA045C19
:1045400002D50FF2682C07E05FEAC47C02D00FF2BC
:10455000602C01E0AFF2700C4FF0FF3823F0004305
:10456000CDF850C065280CD006DC452809D0462877
:104570001DD047283DD13DE0662818D067287ED160
:1045800038E00021112F01DB112000E0781CCDE97B
:10459000000106A90EA8FFF7EDFCDDE90F010E9A58
:1045A00003910021009207F1010A04914DE04FF0C0
:1045B00000400097CDE9011006A90EA8FFF7DAFC2C
:1045C000DDE90F0203920E9B11990022DDF80CA089
:1045D0000093049211B9791C00EB010AB7EB0A00B1
:1045E00004D4C0F1FF3007F1010A0490AAEB0700E0
:1045F000019044E0012F00DA01270021112F01DD95
:10460000112000E03846CDE9000106A90EA8FFF709
:10461000B1FCDDE90F010E9A039100210491009293
:10462000BA4621070CD40399514500DA8A46BAF1FB
:10463000010F05DD009AAAF10101515C302908D073
:10464000B84202DA10F1040F06DA0121CDE90110B7
:1046500015E0AAF10101E9E7002805DC049901440D
:104660000491AAEB000102E0411C514500DD8A469D
:104670000499401A401C01904FF00040029020071E
:1046800004D40198504501DBCDF8048000208DF85A
:104690004F0002980DF14F07B0F1004F25D02B20AD
:1046A0000E9002984FF0020800280CDA4042029067
:1046B0002D200E9007E00A210298FCF711F9303105
:1046C000029007F8011DB8F10001A8F10108F2DC21
:1046D00002980028EFD1791E0E980870307800F00B
:1046E000200040F0450007F8020D12A8C01B00F1A1
:1046F00007081498007800B1012000EB0A01019826
:1047000001EBE07105984144401A401E0590E0031A
:1047100006D45B462146179A059800F05DF80544DB
:104720001498007818B15A46179990476D1CE00309
:1047300024D55B462146179A059800F04DF80544AC
:104740001CE00498002807DBDDE90301884203DD53
:104750000098405C179901E0179930205A4690471D
:10476000049805F10105401C04900198401E019039
:1047700004D12E205A46179990476D1CBAF10001BA
:10478000AAF1010ADDDC05E017F8010B5A4617997A
:1047900090476D1CB8F10001A8F10108F4DC5B46FC
:1047A0002146179A0598ABE62D0000002B0000006B
:1047B000200000002DE9F041044600251E46174662
:1047C000880404D405E039462020B0476D1C641EDF
:1047D000F9D52846BDE8F0812DE9F04104460025D1
:1047E0001E469046C80301D5302700E020278804E4
:1047F00004D505E041463846B0476D1C641EF9D526
:104800002846BDE8F0814A68002A06D00A68531C91
:104810000B6010704868401E486070470A68531C5F
:104820000B601070704700002DE9FE4F06460F46E2
:104830000025684601F0F6FB002442E056F824000B
:1048400057F82410A0EB010ABAF1000F01DB514622
:1048500001E0CAF100010846FBF76FFF83464FF005
:104860008F41FBF7A4FD80465DF824000021FCF792
:1048700023F816D05DF824104046FBF798FD8246D9
:104880004FF07E51FBF75BFD814629F0004A0F484F
:10489000416A5046FCF71AF812D20120A0400543A5
:1048A0000EE00A48C1694046FCF706F805D3074800
:1048B000016A4046FCF70AF802D20120A0400543F5
:1048C000641C032CBADB2846BDE8FE8F1C9500084B
:1048D00010B50446204600F009FB10BD2DE9F04D4F
:1048E0008D4F21F0004A86B005460C46BA452ADBBA
:1048F000AAEB070028430AD08848824501DC1AD178
:10490000CDB106B02846BDE8F04DFFF703BB844AA1
:10491000844B2846FBF730FE07460E46824A834BFF
:1049200028462146FBF728FE06B03A463346BDE846
:10493000F04DFBF77ABD0120FFF716FB06B0BDE88E
:10494000F04DFFF7ECBA7A48824542DABAF1795F66
:104950000BDA2846FFF768FA042808BFFFF7ECFADD
:10496000284606B02146BDE8F08D2A460B46104683
:10497000FBF702FE834602466E480E460B460621B2
:104980007844FFF769FA5A463346FBF7F5FD80464F
:1049900069488A465A46334604217844FFF75CFA50
:1049A0005A463346FBF7E8FD00223B46FBF73DFD48
:1049B00002460B4640465146FBF750FE2A46234628
:1049C000FBF7DAFD06B02A462346BDE8F04DFBF7BB
:1049D0002CBD284624F0004100223D463B46FBF713
:1049E000C8FD4FF0FF32FCF7BFF8064602465348B9
:1049F0000F460B4606217844FFF72EFA32463B4617
:104A0000FBF7BAFDCDE900014D4832463B46042193
:104A10007844FFF721FA32463B46FBF7ADFD002212
:104A20002B46FBF702FD834602913046394604F0DF
:104A3000EBF8804643480D46504517DCDDE90001A0
:104A40005A46029BFBF70AFE42462B46FBF794FDB3
:104A500042462B46FBF7E9FC0122FCF785F8304A79
:104A6000304BFBF783FD304A304B4CE04FF0000AEF
:104A700052460B464046FBF7D8FCCDE903105246A0
:104A80002B4610461946FBF777FD32463B46FBF7AF
:104A900070FDDDE90332FBF7E1FD06460F46DDE977
:104AA00000015A46029BFBF7D9FD83460091012283
:104AB00030463946FCF758F8194A1A4BFBF759FDAE
:104AC00006460F46012240462946FCF74DF85A4655
:104AD000009BFBF751FD32463B46FBF747FD064680
:104AE0000F46012250462946FCF73EF80E4DDFF8EE
:104AF00058802A464346FBF73CFD32463B46FBF7CF
:104B000038FD2A464346FBF734FD002CD8BF81F020
:104B1000004106B0BDE8F08D0000F03F0000F07FDE
:104B2000075C143326A6913C182D4454FB21F93F11
:104B30000000E03FBC570000D2570000465700007D
:104B40005C5700003333EF3FFB21E93F2DE9F84F7D
:104B500004460D4621F0004000917349814211DC6A
:104B60007249884201DC06D12CB120462946BDE8B5
:104B7000F84FFFF7CFB96E48002DCCBF6D496E4995
:104B8000BDE8F88F6D49814211DD6D498142D8BF82
:104B90004FF0FF366DDD20462946FFF745F9042822
:104BA00008BFFFF7C9F920462946BDE8F88F6549D7
:104BB000654F25F00045814233DD6449814219DDAE
:104BC000002632464FF0804320462946FBF72DFC55
:104BD00080468A46012220462946FBF7C5FF00226F
:104BE0003B46FBF7C3FC42465346FBF737FD044602
:104BF0000D463EE001260022BA463B4620462946A5
:104C0000FBF713FC80460F460022534620462946F8
:104C1000FBF7ACFC42463B46FBF720FD04460D4645
:104C200027E04B4981421BDDDFF828A10226002244
:104C3000534620462946FBF79FFC00223B46FBF7E4
:104C4000F4FB80460F460022534620462946FBF7D8
:104C50008DFC42463B46FBF701FD04460D4608E04D
:104C6000032622462B4600203B49FBF7F7FC04466F
:104C70000D4622462B4610461946FBF77DFC8B4617
:104C8000824602460B46FBF777FC0746024633484E
:104C900088460B4606217844FFF7DEF852465B460D
:104CA000FBF76AFC82462E488B463A46434605216E
:104CB0007844FFF7D1F83A464346FBF75DFC0246DD
:104CC0000B46002E504659460CDAFBF7AEFB224647
:104CD0002B46FBF751FC01B022462B46BDE8F04FB6
:104CE000FBF747BCFBF7A1FB22462B46FBF744FC36
:104CF0001C4A7A4402EBC603D3E90023FBF736FCD7
:104D000022462B46FBF732FC174A7A4402EBC603D5
:104D1000D3E90023FBF72DFC009A002AB8BF81F0ED
:104D20000041BDE8F88F0000000010440000F07F53
:104D3000182D4454FB21F93FFB21F9BF0000DC3F53
:104D40000000203E0000F33F0000F03F0000E63F7F
:104D5000008003400000F83F0000F0BF1E56000036
:104D6000DC5500007A550000425500002DE9F04D59
:104D70009446CCF1000423F000464CEA0404524F60
:104D800046EAD4749A46884621F00042BC4206D8CE
:104D9000454240EA050442EAD474BC4204D9BDE865
:104DA000F04D6246FFF7B9B8AAF14055A5F17F650D
:104DB00055EA0C040BD0022404EAAA74434DDFF830
:104DC00010E144EAD87452EA000B04D00CE0BDE8CC
:104DD000F04DFFF7BBBE002C14BF012CBDE8F08DD9
:104DE000022C30D0032C32D056EA0C0B0AD0BE4233
:104DF00020D1BA4209D126F0804622F080423346C3
:104E0000114617E000291ADB25E0DFF8C8B0FB44A3
:104E1000002C04BFDBE90001BDE8F08D012C02BFCE
:104E2000DBE9000181F00041BDE8F08D022C0AD0E1
:104E3000032C0CD0BA4212D1B8F1000F0BDA234880
:104E40002549BDE8F08D28462449BDE8F08D284667
:104E50007146BDE8F08D1D482149BDE8F08D921BDB
:104E600012153C2AC4BF19481D490EDCBAF1000FC7
:104E7000BEBF12F13C0F0020014606DB6246FBF785
:104E8000EDFB21F00041FFF761FE002C08BFBDE8FB
:104E9000F08D012C04BF81F00041BDE8F08D114A76
:104EA000114B022C07D0FBF761FB2A46BDE8F04D01
:104EB0000A4BFBF75BBBFBF759FB2A46BDE8F04DFD
:104EC000064BFBF756BB00000000F07F182D445442
:104ED000FB2109C0D6540000FB21F9BFFB2109408A
:104EE000FB21F93F075C143326A6A13C2DE9FE4FB8
:104EF0000446002002905448007805280CD2DFE8D0
:104F000000F0030C324A920001F088FFB0F5FA6F0E
:104F100002D901204C49087092E04C4801682046B3
:104F2000FBF7D4FC0FD22046FBF733FC06464FF4C8
:104F3000487101F079FF0546FBF7FFFB4349086024
:104F400002204149087001F069FF41490968401A8F
:104F5000B0F5FA6F04D900203E4908603E49086068
:104F600000F058F96CE0394801682046FBF7A4FCD2
:104F700003D20320344908700CE02046FBF709FCFB
:104F800006464FF4487101F04FFF0546FBF7D5FB8D
:104F90002E49086054E031492046FBF77EF905466A
:104FA0002A4801682846FBF787FC38D20120029086
:104FB0002948046004202449087001F02FFF244987
:104FC0000968451A2846FBF7C1FB8146002148467F
:104FD000FBF772FC1ED01F480068FBF726FC074653
:104FE0001F4A204BFBF7C8FA05460E464846FBF71A
:104FF0001CFC07464FF033321B4BFBF7BDFA2A4629
:105000003346CDE90001FBF710FA8246FBF738FC86
:105010001049086001F002FF0D49086002E002201B
:10502000094908700CE001F0F9FE09490968401AC5
:10503000C82802D901200449087000F0EBF800BF2D
:1050400000BF0298BDE8FE8F880400208C04002079
:105050009804002090040020940400200000F041F7
:105060009A9999999999D93F3333E33F2DE9F84FAC
:105070004FF0000A0020009001F0D0FE414909687D
:10508000A0EB010B5846FBF777FB074600223E4B8F
:10509000FBF7DEFB74D201F0C1FE3A49086003F071
:1050A00019FE3A480088FBF751FB0746384A111FA2
:1050B00003F0D0FD054637480088FBF747FB07465D
:1050C000354A111F03F0C6FD814685F0004738467A
:1050D000FBF7DAFF06463046FFF7FAFB044600F01E
:1050E0007DFF07460021FBF7F1FB12D202202B497E
:1050F0000870224649462846FEF704F900F06EFF84
:105100000746FBF746FB0FFA80FA00F085FF009098
:1051100008E022480078022804D101201F490870C5
:1051200003F0CAFC1E480078012804D0022810D0E1
:1051300003281AD112E017480088FBF707FB07463F
:1051400012480088FBF702FB80463946FBF784FED5
:105150000CE049462846FBF77FFE07E01148A0F81F
:1051600000A011490098087000E000BF00BF3CB1EA
:1051700000210E480068FBF79FFB01D002F093FF6F
:10518000BDE8F88FB4040020000024408004002013
:10519000C804002082040020D0040020A8040020BD
:1051A000A90400206600002068000020A40400205C
:1051B0002DE9F0410446E07800F0C006E07800F008
:1051C0003F05607800F0010098B1EF102846E9171C
:1051D00005EB5171C910A5EBC101491C01F0FF0895
:1051E0000B48006820B10A4841460268384690479B
:1051F00000BF607800F0080030B10548406818B181
:10520000B011034A516888470020BDE8F0810000D2
:10521000D00700202DE9FF5F002127480068FBF739
:1052200055FB30D2002125480068FBF74FFB2AD2FE
:10523000234922480068FBF7BAF88046FBF7F5FAE5
:1052400006460F461C480068FBF7EFFA80464FF011
:1052500066321C4BFBF790F932463B46CDE9000124
:10526000FBF7FCF9CDE9020117480068FBF7DDFA0E
:105270000446DDE90223FBF779F98246FBF700FBE0
:10528000114908600DE010480068FBF7CEFA0646A9
:105290000E4A0F4BFBF770F90446FBF7F1FA0A4987
:1052A00008600C4908480068FBF706FB02D2094871
:1052B00005490860BDE8FF9F940400209004002089
:1052C000000020416666E63F8C040020AE47E17A8C
:1052D00014AEEF3F0000A04110B56FF00400FEF7E0
:1052E0001FF90A4800680A49B0FBF1F00949087043
:1052F0000846007800EB4001C1EBC0104FF6FF718B
:1053000001EAC0000449088010BD00000000002030
:1053100000127A006A0000206C0000200146114A49
:1053200012884A434FF0E0235A6100229A611A46DC
:10533000126942F001021A6100BF4FF0E0221069C9
:1053400000F001021AB100F48032002AF5D04FF0CB
:10535000E022126922F001024FF0E0231A610022DC
:105360009A6170476C0000200146114A12784A4346
:105370004FF0E0235A6100229A611A46126942F006
:1053800001021A6100BF4FF0E022106900F0010233
:105390001AB100F48032002AF5D04FF0E0221269F1
:1053A00022F001024FF0E0231A6100229A61704757
:1053B0006A00002038B5044664B120208DF8000052
:1053C00028208DF8010030208DF8020038208DF85B
:1053D000030004E0A32204216846FAF7E6FE6A46C9
:1053E000042140F69E2002F013FE02F0FDF938BDC4
:1053F0003EB5044602208DF80000CA208DF8010059
:10540000E3208DF8020009208DF803006A4604218C
:10541000682002F0FDFDA3208DF8000004F040009C
:1054200048B1C0208DF80100C8208DF80200C220CC
:105430008DF8030006E0A3208DF801008DF802002E
:105440008DF8030004F4C07048B1C4208DF8040046
:10545000CC208DF80500C6208DF8060006E0A320BC
:105460008DF804008DF805008DF80600A3208DF856
:1054700007008DF808008DF809006A460A2140F6F9
:10548000A72002F0C5FD04F0030018B120208DF81C
:10549000000002E0D8208DF800006A46012140F6A5
:1054A000B62002F0B5FD04F0200018B1012000F094
:1054B000ADF802E0002000F0A9F804F4C07008B3D1
:1054C00004F4807060B1B2208DF800008B208DF85C
:1054D0000100B6208DF802009B208DF803000BE040
:1054E000B0208DF8000080208DF80100B4208DF8E8
:1054F000020090208DF803006A46042140F6A220A5
:1055000002F086FD04F0010020B3F8208DF80000C1
:105510006A4601214FF40B6002F07AFDFA21072060
:1055200000F02CFC072000F0F3FB012000F013FC3E
:10553000642000F0F3FC4FF4FA7000F002FDC82183
:10554000304800F0A3FB282000F0BCFB0A2000F04C
:10555000CCFB08E0D8208DF800006A4601214FF40A
:105560000B6002F055FD04F0020018B1D9208DF84F
:10557000000002E0D8208DF800006A46012140F2C8
:105580003D7002F045FD04F0040018B1012000F068
:1055900069F802E0002000F065F804F0100018B18E
:1055A0000120FFF707FF02E00020FFF703FF44F0B0
:1055B00008001549488102F017F900201249887344
:1055C00004F0400018B10846807B801D887304F405
:1055D000C07020B10C48807B801D0B49887304F09B
:1055E000140020B10848807B10300749887304F00C
:1055F000030020B10448807B001D0349887300200C
:105600003EBD000009E3CA02D00700203EB50446B3
:105610006CB10EA1D1E900208968CDE9002002918A
:105620006A4609214FF4976002F0F2FC3EBD0AA2DF
:10563000D2E900109268CDE9010200916A46092181
:105640004FF4976002F0E4FCF0E70000B8AAB38DD5
:10565000B4980D355D000000B8AAAAAAB088C3C5E9
:10566000C700000038B5044664B1C0208DF80000C2
:10567000C2208DF80100C4208DF80200C6208DF8EC
:10568000030004E08B2204216846FAF78EFD6A4687
:10569000042140F6982002F0BBFC02F0A5F838BDCA
:1056A00010B5C8234FF48062024940F6F63001F08D
:1056B0002FFF10BD449500082DE9F04F8DB007462F
:1056C000884615469946DDE9166B00240020308097
:1056D0006B49887B5A4605A901F0E6FF18B1601EA8
:1056E0000DB0BDE8F08F6648807A00F01400002805
:1056F00067D09DF8140000069DF8151040EA01409F
:105700009DF8161040EA01209DF817100843286004
:105710009DF8180000069DF8191040EA01409DF818
:105720001A1040EA01209DF81B10084368609DF89C
:105730001C0000069DF81D1040EA01409DF81E1057
:1057400040EA01209DF81F100843A8609DF8200042
:1057500000069DF8211040EA01409DF8221040EA21
:1057600001209DF823100843E86004F11000C4B242
:10577000286800140190686800140290A86800145A
:105780000390E8680014049001984043029901FBDB
:105790000100039901FB0100049901FB010ABAF120
:1057A000706F02DBBAF1885F05DD02F01DF80020A2
:1057B0003080401E94E7B6F9000040F480703080DD
:1057C00000BF2F48807A00F0400020B305A9601C7C
:1057D000085C095D40EA012000B2A8F8000005A9B4
:1057E000E01C095C05AAA01C105C41EA002000B284
:1057F000A8F8020005A9601D095C201D105C41EAA3
:10580000002000B2A8F80400A01DC4B2B6F9000040
:1058100040F0080030801A48408900F4C07008B396
:1058200005A9601C085C095D40EA012000B23880CF
:1058300005A9E01C095C05AAA01C105C41EA002037
:1058400000B2788005A9601D095C201D105C41EA4A
:10585000002000B2B880A01DC4B2B6F9000040F02C
:10586000700030800648807A00F0030018B105A966
:105870000819FFF79DFC484601F0CEFA00202FE7FB
:10588000D007002070B588B0064601A801F094FC4E
:10589000BDF804000021C90341EA5045C40344484F
:1058A000007A00F0030056F8200005904048007A86
:1058B00000F0040010B10598404205903C48007A81
:1058C000C0F3C10056F8200006903948007A00F075
:1058D000200010B10698404206903548007AC0F387
:1058E000811056F8200007903148008900F480703C
:1058F00010B10798404207900598C117A0FB0423F8
:1059000001FB043100FB0510810041EA9270059013
:105910000698C117A0FB042301FB043100FB05100E
:10592000810041EA927006900798C117A0FB0423FA
:1059300001FB043100FB0510810041EA92700790E1
:105940000598000E8DF808000598000C8DF80900E8
:105950000598000A8DF80A000598C0B28DF80B0072
:105960000698000E8DF80C000698000C8DF80D00BE
:105970000698000A8DF80E000698C0B28DF80F0048
:105980000798000E8DF810000798000C8DF8110094
:105990000798000A8DF812000798C0B28DF813001E
:1059A00002AA0C214FF4257002F032FB08B070BD42
:1059B000D007002030B585B0044616A207CA02AB56
:1059C00007C3C82C03DD4FF0FF3005B030BDC82041
:1059D00090FBF4F0401E85B2280A8DF80000E8B272
:1059E0008DF801006A46022140F2162002F010FBF9
:1059F00010B14FF0FF30E8E702AA0C2140F6C120B9
:105A000002F006FB10B14FF0FF30DEE7044884815E
:105A10000020DAE7FEF2ABC4AAF1DFDFBBAFDFDFC5
:105A2000D00700201FB504464848007A00F0030064
:105A300054F8200001904548007A00F0040010B1AD
:105A40000198404201904148007AC0F3C10054F8E7
:105A5000200002903D48007A00F0200010B102982A
:105A6000404202903948007AC0F3811054F8200077
:105A700003903648008900F4807010B103984042CA
:105A800003903349019880FB0101800F40EA8100B7
:105A900001902F49029880FB0110820042EA917028
:105AA00002902B49039880FB0110820042EA91701A
:105AB00003900198000E8DF800000198000C8DF8FD
:105AC00001000198000A8DF802000198C0B28DF81B
:105AD00003006A4604214FF4747002F099FA18B179
